:100000000C9466000C9472000C9472000C947200B4
:100010000C9472000C9472000C9472000C94720098
:100020000C9472000C9472000C9472000C94720088
:100030000C9472000C9472000C9472000C94720078
:100040000C9472000C9472000C9472000C94720068
:100050000C9472000C9472000C9472000C94720058
:100060000C9472000C9472000C9472000C94720048
:100070000C9472000C9472000C9472000C94720038
:100080000C9472000C9472000C9472000C94720028
:100090000C9472000C9472000C9472000C94720018
:1000A0000C9472000C9472000C9472000C94720008
:1000B0000C9472000C9472000C9472000C947200F8
:1000C0000C9472000C9472000C94720011241FBEE8
:1000D000CFEFD1E2DEBFCDBF00E00CBF0E947400C5
:1000E0000C94A2010C9400000EEF402E5524C0E0A9
:1000F000D0E0A6E1B2E080E090E0EFEFF1E2EDBF0A
:10010000FEBF279A2F9800E00093C50007E60093F2
:10011000C4000027086000610093C100F9C00D2FE2
:10012000007E10EC01138DC0DF71CE010881071332
:100130008DC0F981EA810994CF93DF93EC01C00F60
:10014000D51D8D01DC01C017D10719F029912D9320
:10015000FACFDF91CF9108950D931D93CD93DD9349
:10016000ED012497D06808950D2F007E10E801134B
:100170007AC0DF710881D981C02F08950D2F007ECC
:1001800010E8011370C0DF710A81DB81C02F089570
:100190002D2F207E30E8231366C0DF71088319837A
:1001A00008952D2F207E30E823135DC0DF710A8370
:1001B0001B8308952D2F207E30EA23135CC0DF714E
:1001C000299139910217130708F05EC0000F111F23
:1001D000C00FD11F0881D981C02F08954D2F407EB7
:1001E00050EA451348C0DF7149915991041715072A
:1001F00008F04AC0000F111FC00FD11F2883398398
:1002000008952D2F207E30EA231335C0DF71088139
:10021000D981C02F0895C017D10718F0DEEFCC2781
:100220000895DFEFCC2708959E01CC27DD27251503
:10023000350509F433C0021B130B10F02196FBCFD8
:1002400008955DD0D3E0C8EE45D0FBCF58D057D04D
:10025000D3E0A8EE3FD0FACF52D051D050D0D3E067
:10026000A8EE38D0F9CF4BD04AD049D048D0D3E00F
:10027000A8EE30D0F8CF43D042D041D040D03FD0CC
:10028000D3E0A8EE27D0F7CF3AD039D038D037D046
:1002900036D035D0D3E0A8EE1DD0F6CF30D02FD059
:1002A0002ED02DD02CD02BD02AD0D3E0A8EE12D037
:1002B000F5CF25D0FECF0F930091C00005FFFCCFF6
:1002C000D093C6000091C00005FFFCCFC093C600CC
:1002D0000F9108959F938F939FE080EA0197F1F724
:1002E0002197D1F78F919F9108955F925F905F92D0
:1002F0005F905F925F9000002197B9F708952F9A61
:10030000D0E0C8ECE7DF2F98D0E0C8ECE3DF089539
:10031000FF93EF939F938F9301E00F930DE90F935A
:10032000D0911402C0911502CF93DF93D0910002B7
:10033000C091010271E00C948F008F919F91EF9119
:08034000FF912F9AF894FFCF02
:00000001FF
