:100000000C9472000C947E000C947E000C947E0084
:100010000C947E000C947E000C947E000C947E0068
:100020000C947E000C947E000C947E000C947E0058
:100030000C947E000C947E000C947E000C947E0048
:100040000C947E000C947E000C947E000C947E0038
:100050000C947E000C947E000C947E000C947E0028
:100060000C947E000C947E000C947E000C947E0018
:100070000C947E000C947E000C947E000C947E0008
:100080000C947E000C947E000C947E000C947E00F8
:100090000C947E000C947E000C947E000C947E00E8
:1000A0000C947E000C947E000C947E000C947E00D8
:1000B0000C947E000C947E000C947E000C947E00C8
:1000C0000C947E000C947E000C947E000C947E00B8
:1000D0000C947E000C947E000C947E000C947E00A8
:1000E0000C947E0011241FBECFEFD1E2DEBFCDBF46
:1000F00000E00CBF0E9480000C943B0C0C940000AC
:100100000EEF402E5524F8946FB6C0E0D0E0A6E282
:10011000B2E080E090E0EFEFF1E2279A2F98F7C08D
:100120000D2F007E10EC01139AC0DF71CE01088103
:1001300007139AC0F981EA8109942F903F908F9319
:100140009F93AF93BF93EF93FF931F9211243F921E
:100150002F926FBE08956FB6F8942F903F90EC01E8
:100160001F90FF91EF91BF91AF919F918F913F921F
:100170002F9208950D931D93CD93DD93ED01249758
:10018000D06808950D2F007E10E801137AC0DF714A
:100190000881D981C02F08950D2F007E10E801132A
:1001A00070C0DF710A81DB81C02F08952D2F207E62
:1001B00030E8231366C0DF710883198308952D2F5B
:1001C000207E30E823135DC0DF710A831B8308950E
:1001D0002D2F207E30EA23135CC0DF7129913991E5
:1001E0000217130708F05EC0000F111FC00FD11FC8
:1001F0000881D981C02F08954D2F407E50EA4513C4
:1002000048C0DF71499159910417150708F04AC099
:10021000000F111FC00FD11F2883398308952D2F80
:10022000207E30EA231335C0DF710881D981C02FC9
:100230000895C017D10718F0DEEFCC270895DFEF3F
:10024000CC2708959E01CC27DD272515350509F417
:1002500033C0021B130B10F02196FBCF08954ED034
:10026000D3E0C8EE36D0FBCF49D048D0D3E0A8EEDB
:1002700030D0FACF43D042D041D0D3E0A8EE29D03D
:10028000F9CF3CD03BD03AD039D0D3E0A8EE21D042
:10029000F8CF34D033D032D031D030D0D3E0A8EE44
:1002A00018D0F7CF2BD02AD029D028D027D026D0CD
:1002B000D3E0A8EE0ED0F6CF21D020D01FD01ED094
:1002C0001DD01CD01BD0D3E0A8EE03D0F5CF16D0A4
:1002D000FECF9F938F939FE080EA0197F1F72197DC
:1002E000D1F78F919F9108955F925F905F925F9099
:1002F0005F925F9000002197B9F708952F9AD0E0A0
:10030000C8ECE7DF2F98D0E0C8ECE3DF089506E300
:1003100010E00D931D93D0E0CCE2CD93DD93D0E0BF
:10032000CCE2CD93DD93D0E0CCE2CD93DD93D0E071
:10033000CCE2CD93DD93D0E0C2E3CD93DD93D0E06A
:10034000CCE2CD93DD93D1E0C0E0CD93DD93D1E05D
:10035000C0E0CD93DD93D1E0C0E0CD93DD93D1E05B
:10036000C0E0CD93DD93D0E0C3E2CD93DD93D0E048
:10037000C3E2CD93DD93D0E0C3E2CD93DD93D0E033
:10038000C3E2CD93DD93D1E0C9E0CD93DD93D1E01D
:10039000C9E0CD93DD93D1E0C0E0CD93DD93D1E012
:1003A000C0E0CD93DD93D0E0C6E2CD93DD93D0E005
:1003B000C6E2CD93DD93D0E0C6E2CD93DD93D0E0ED
:1003C000C6E2CD93DD93D0E0C0E2CD93DD93D0E0E3
:1003D000C0E2CD93DD93D0E0C0E2CD93DD93D0E0D9
:1003E000C0E2CD93DD93D0E0C0E2CD93DD93D0E0C9
:1003F000C0E2CD93DD93D0E0C0E2CD93DD93D0E0B9
:10040000C0E2CD93DD93D0E0C6E2CD93DD93D0E0A2
:10041000C6E2CD93DD93D0E0C6E2CD93DD93D0E08C
:10042000C6E2CD93DD93D0E0C6E2CD93DD93D0E07C
:10043000C6E2CD93DD93D0E0C6E2CD93DD93D0E06C
:10044000C6E2CD93DD93D0E0C6E2CD93DD93D0E05C
:10045000C2E3CD93DD93D0E0C2E3CD93DD93D0E052
:10046000C2E3CD93DD93D1E0C9E0CD93DD93D1E03C
:10047000C9E0CD93DD93D1E0C9E0CD93DD93D1E028
:10048000C9E0CD93DD93D1E0C9E0CD93DD93D1E018
:10049000C9E0CD93DD93D1E0C9E0CD93DD93D1E008
:1004A000C9E0CD93DD93D0E0C3E2CD93DD93D0E0FE
:1004B000C3E2CD93DD93D0E0C3E2CD93DD93D0E0F2
:1004C000C3E2CD93DD93ED01CE56D040D06AD093F8
:1004D0000102C093000206E410E00D931D93D0E0EA
:1004E000C1E0CD93DD93D0E0C2E0CD93DD93D0E0C9
:1004F000C0E1CD93DD93D0E0C0E2CD93DD93D0E0B9
:10050000C0E2CD93DD93D0E0C8E0CD93DD93D0E0A1
:10051000C8E0CD93DD93D0E0C0E1CD93DD93D0E092
:10052000C0E2CD93DD93D0E0C0E4CD93DD93D0E085
:10053000C0E1CD93DD93D0E0C0E2CD93DD93D0E078
:10054000C0E4CD93DD93D0E0C0E8CD93DD93D0E05F
:10055000C2E0CD93DD93D0E0C1E0CD93DD93D0E058
:10056000C2E0CD93DD93D0E0C1E0CD93DD93D0E048
:10057000C8E0CD93DD93D0E0C4E0CD93DD93D0E02F
:10058000C2E0CD93DD93D0E0C1E0CD93DD93D0E028
:10059000C1E0CD93DD93D0E0C2E0CD93DD93D0E018
:1005A000C4E0CD93DD93D0E0C8E0CD93DD93D0E0FF
:1005B000C0E1CD93DD93D0E0C0E2CD93DD93D0E0F8
:1005C000C0E4CD93DD93D0E0C0E8CD93DD93D0E0DF
:1005D000C0E8CD93DD93D0E0C0E4CD93DD93D0E0CF
:1005E000C0E2CD93DD93D0E0C0E1CD93DD93D0E0C8
:1005F000C8E0CD93DD93D0E0C4E0CD93DD93D0E0AF
:10060000C2E0CD93DD93D0E0C1E0CD93DD93D0E0A7
:10061000C0E8CD93DD93D0E0C4E0CD93DD93D0E08E
:10062000C2E0CD93DD93D0E0C1E0CD93DD93D0E087
:10063000C0E8CD93DD93D0E0C0E4CD93DD93D0E06E
:10064000C0E2CD93DD93D0E0C0E1CD93DD93D0E067
:10065000C8E0CD93DD93D0E0C4E0CD93DD93D0E04E
:10066000C2E0CD93DD93D0E0C1E0CD93DD93D0E047
:10067000C8E0CD93DD93D0E0C4E0CD93DD93D0E02E
:10068000C2E0CD93DD93D0E0C1E0CD93DD93D0E027
:10069000C1E0CD93DD93D0E0C2E0CD93DD93D0E017
:1006A000C4E0CD93DD93D0E0C8E0CD93DD93D0E0FE
:1006B000C0E1CD93DD93D0E0C0E2CD93DD93D0E0F7
:1006C000C0E4CD93DD93D0E0C0E8CD93DD93D0E0DE
:1006D000C1E0CD93DD93D0E0C2E0CD93DD93D0E0D7
:1006E000C4E0CD93DD93D0E0C8E0CD93DD93D0E0BE
:1006F000C0E1CD93DD93D0E0C0E2CD93DD93D0E0B7
:10070000C0E4CD93DD93D0E0C0E8CD93DD93ED015F
:10071000CE58D040D06AD0930302C093020202E0C8
:100720000D9303E00D930CE90D938D939D93ED01D3
:100730002597D06C0C94D703FA01D381C481DF9341
:10074000CF93D0910302C09102020F911F910E949A
:10075000E800CF93D181C281DF93D0E0C1E0D7FD23
:100760000C943A01DF93CF93D381C481DF93CF936D
:10077000D0910102C09100020F911F910E94E800E8
:10078000D7FD0C943A010F911F91C00FD11F3F91DB
:100790002F914881422B209530FF42234883D381FB
:1007A000C4813496EDBFFEBFEF91FF910994D093C1
:1007B0000502C093040202E00D9303E00D9308EEDE
:1007C0000D938D939D93ED012597D06C0C9423048C
:1007D000FA01D381C481DF93CF93D0910302C091FA
:1007E00002020F911F910E94E800CF93D181C28134
:1007F000DF93D0E0C2E0D7FD0C943A01DF93CF93B2
:10080000D381C481DF93CF93D0910102C0910002C4
:100810000F911F910E94E800D7FD0C943A010F91AF
:100820001F91C00FD11F3F912F914881422B2095DE
:1008300030FF42234883D381C4813496EDBFFEBF8D
:10084000EF91FF910994D0930702C093060201E053
:100850000D9304E00D9304E30D938D939D93ED01AF
:100860002597D06C0C945404FA01D181C281CF93A6
:10087000DF93DFEFC0E0CF93DF93D0910502C0910B
:1008800004022DB73EB73296EDBFFEBF3497AF01DD
:10089000F9013496E217F30721F0008131970F93A5
:1008A000F9CF72E00C949000D0930902C093080233
:1008B00001E00D9304E00D9305E60D938D939D9358
:1008C000ED012597D06C0C948504FA01D181C28189
:1008D000CF93DF93DFEFC0E0CF93DF93D091070298
:1008E000C09106022DB73EB73296EDBFFEBF3497DA
:1008F000AF01F9013496E217F30721F00081319737
:100900000F93F9CF72E00C949000D0930B02C09338
:100910000A0201E00D9304E00D9306E90D938D9317
:100920009D93ED012597D06C0C94B604FA01D1810A
:10093000C281CF93DF93DEEFC0E0CF93DF93D091FE
:100940000702C09106022DB73EB73296EDBFFEBF3B
:100950003497AF01F9013496E217F30721F00081D3
:1009600031970F93F9CF72E00C949000D0930D0261
:10097000C0930C0204E00D9304E00D9307EC0D937B
:100980008D939D93ED012597D06C0C946705FA012A
:10099000FF93EF939F938F9304E00F9304EE0F93D5
:1009A000D781C085CF93DF93D381C481DD1FDD1F45
:1009B000CF93DF93D0910702C0910602EDB7FEB747
:1009C000AF0172E00C9490008F919F91EF91FF9195
:1009D000FF93EF939F938F9305E00F9306E10F939F
:1009E000FF93EF939F938F9305E00F9306E00F9390
:1009F000D581C681CF93DF93D0910B02C0910A02BB
:100A0000EDB7FEB7AF0171E00C9490008F919F910C
:100A1000EF91FF91CF93DF93D0910D02C0910C0223
:100A2000EDB7FEB7AF0171E00C9490008F919F91EC
:100A3000EF91FF91D181C2818E015D1611F4DFEF3C
:100A40005C12DEEFCC27D4110C945F05D781C085F2
:100A5000CF93DF93D581C681CF93DF93D381C481B8
:100A6000CC0FDD1FCF93DF93D0E0C1E0D7FD0C9416
:100A70003A01DF93CF93D181C281D7FD0C943A0123
:100A80000F911F91C01BD10BCF93DF93D0910F0219
:100A9000C0910E022DB73EB73896EDBFFEBF389716
:100AA000AF01F9013896E217F30721F00081319781
:100AB0000F93F9CF74E00C9490000C946105DFEF74
:100AC000C0E03896EDBFFEBFEF91FF910994D0933F
:100AD0000F02C0930E0203E00D9305E00D9308E7AB
:100AE0000D938D939D93ED012597D06C0C94E605A5
:100AF000FA01D181C2818E015D1611F4DFEF5C1223
:100B0000DEEFCC27D4110C94DE05FF93EF939F9377
:100B10008F9305E00F9307EA0F93D581C681CF939A
:100B2000DF93D381C481CF93DF93D0E0C0E0CF9334
:100B3000DF93D0E0CFE0CF93DF93D0910F02C0914D
:100B40000E02EDB7FEB7AF0174E00C9490008F91E8
:100B50009F91EF91FF91D581C681CF93DF93D38190
:100B6000C481CF93DF93D0E0C1E0D7FD0C943A016C
:100B7000DF93CF93D181C281D7FD0C943A010F91BD
:100B80001F91C01BD10BCF93DF93D0911102C09165
:100B900010022DB73EB73696EDBFFEBF3697AF01B8
:100BA000F9013696E217F30721F0008131970F9390
:100BB000F9CF73E00C9490000C94E005DFEFC0E0F7
:100BC0003696EDBFFEBFEF91FF910994D0931102CD
:100BD000C093100203E00D9305E00D9307EF0D9312
:100BE0008D939D93ED012597D06C0C941D07FA0110
:100BF000D0E0C0E0DF93CF93D581C6810F911F91E4
:100C00000E94E800CF93DF93D0E0C1E0DF93CF9361
:100C1000D581C6810F911F910E94E800CF93DF9389
:100C2000D0E0C2E0DF93CF93D581C6810F911F91B1
:100C30000E94E800CF93DF93D0E0C3E0DF93CF932F
:100C4000D581C6810F911F910E94E800CF93DF9359
:100C5000D581C681CF93DF93D381C481CF93DF93B6
:100C6000D181C281CF93DF939D01ADB7BEB71597F8
:100C7000ADBFBEBF119607E00D9306E00D9309E4EA
:100C80000D938D939D93ED012597D06CD9010C9414
:100C90000507FA01FF93EF939F938F9306E00F935D
:100CA00000E60F93D185C285CF93DF93D0910D02DB
:100CB000C0910C02EDB7FEB7AF0171E00C9490004B
:100CC0008F919F91EF91FF91FF93EF939F938F935C
:100CD00006E00F930EE90F93D585C685CF93DF937A
:100CE000D385C485CF93DF93D0E0C1E0D7FD0C94CA
:100CF0003A01DF93CF93D381C481D7FD0C943A019D
:100D0000DF93CF93D781C085D7FD0C943A010F9123
:100D10001F91C01BD10BD7FD0C943A010F911F916D
:100D2000C01BD10BCF93DF93D0911102C091100261
:100D3000EDB7FEB7AF0173E00C9490008F919F91D7
:100D4000EF91FF91FF93EF939F938F9306E00F93A3
:100D500004EC0F93D585C685CF93DF93D385C485E7
:100D6000CF93DF93D181C281CF93DF93D0E0CFE0E7
:100D7000CF93DF93D0910F02C0910E02EDB7FEB773
:100D8000AF0174E00C9490008F919F91EF91FF91CF
:100D9000FF93EF939F938F9306E00F9306EE0F93CD
:100DA000D585C685CF93DF93D385C485CF93DF9355
:100DB000D381C481CF93DF93D0911102C0911002EF
:100DC000EDB7FEB7AF0173E00C9490008F919F9147
:100DD000EF91FF91D185C285CF93DF93D0910B0224
:100DE000C0910A022DB73EB73E96EDBFFEBF3297C7
:100DF000AF01F9013296E217F30721F00081319734
:100E00000F93F9CF71E00C9490002DB73EB7369652
:100E1000EDBFFEBF3E97AF01F90135963E96E21752
:100E2000F30721F0008131970F93F9CF77E0DEB718
:100E3000CDB72196D06C0C949000D0931302C09340
:100E4000120204E00D9307E00D930EE20D938D93D3
:100E50009D93ED012597D06C0C94ED07FA01D1819B
:100E6000C281DF93CF93FF93EF939F938F9307E01C
:100E70000F9301E60F93FF93EF939F938F9307E0F8
:100E80000F9301E50F93D381C481CF93DF93D0916A
:100E90000902C0910802EDB7FEB7AF0171E00C94F2
:100EA00090008F919F91EF91FF91CF93DF93D0911D
:100EB0000D02C0910C02EDB7FEB7AF0171E00C94CA
:100EC00090008F919F91EF91FF91DF93CF93FF93CC
:100ED000EF939F938F9307E00F9305E90F93FF9391
:100EE000EF939F938F9307E00F9305E80F93D581BE
:100EF000C681CF93DF93D0910902C0910802EDB76C
:100F0000FEB7AF0171E00C9490008F919F91EF912B
:100F1000FF91CF93DF93D0910D02C0910C02EDB7FA
:100F2000FEB7AF0171E00C9490008F919F91EF910B
:100F3000FF91DF93CF93FF93EF939F938F9307E0FE
:100F40000F9309EC0F93FF93EF939F938F9307E019
:100F50000F9309EB0F93D781C085CF93DF93D09187
:100F60000902C0910802EDB7FEB7AF0171E00C9421
:100F700090008F919F91EF91FF91CF93DF93D0914C
:100F80000D02C0910C02EDB7FEB7AF0171E00C94F9
:100F900090008F919F91EF91FF91DF93CF9304E0A9
:100FA00010E00D931D93CF91DF91CD93DD93CF9101
:100FB000DF91CD93DD93CF91DF91CD93DD93CF91F1
:100FC000DF91CD93DD93ED01CA50D040D06A3896C1
:100FD000EDBFFEBFEF91FF910994D0931502C0932E
:100FE000140204E00D9307E00D930EEF0D938D9323
:100FF0009D93ED012597D06C0C944508FA01D7819B
:10100000C085CF93DF93D581C681CF93DF93D38102
:10101000C481D7FD0C943A01DF93CF93D1E0C0E0B7
:10102000D7FD0C943A010F911F912D2F3C2F039F58
:10103000C02DD12D139FD00D029FD00DD7FD0C9444
:101040003A01DF93CF93D181C281D7FD0C943A014D
:101050000F911F91C00FD11FCF93DF93D091130237
:10106000C09112022DB73EB73896EDBFFEBF36973E
:10107000AF01F9013696E217F30721F000813197AD
:101080000F93F9CF73E00C949000D0931702C093A4
:10109000160203E00D9308E00D9306E50D938D9382
:1010A0009D93ED012597D06C0C948808FA01D581A9
:1010B000C681CF93DF93D381C481CF93DF93D9E0EF
:1010C000C0E0D7FD0C943A01DF93CF93D181C28168
:1010D000D7FD0C943A010F911F91C00FD11FCF93F0
:1010E000DF93D0911302C09112022DB73EB736960E
:1010F000EDBFFEBF3697AF01F9013696E217F30751
:1011000021F0008131970F93F9CF73E00C94900098
:10111000D0931902C093180203E00D9308E00D93D9
:1011200009E90D938D939D93ED012597D06C0C9457
:10113000CB08FA01D581C681CF93DF93D381C481D7
:10114000CF93DF93DAE0C0E0D7FD0C943A01DF9350
:10115000CF93D181C281D7FD0C943A010F911F9199
:10116000C00FD11FCF93DF93D0911302C091120211
:101170002DB73EB73696EDBFFEBF3697AF01F901EA
:101180003696E217F30721F0008131970F93F9CFDC
:1011900073E00C949000D0931B02C0931A0203E0FA
:1011A0000D9308E00D930CED0D938D939D93ED0140
:1011B0002597D06C0C940E09FA01D581C681CF9386
:1011C000DF93D381C481CF93DF93DBE0C0E0D7FD11
:1011D0000C943A01DF93CF93D181C281D7FD0C9457
:1011E0003A010F911F91C00FD11FCF93DF93D09180
:1011F0001302C09112022DB73EB73696EDBFFEBF67
:101200003697AF01F9013696E217F30721F0008116
:1012100031970F93F9CF73E00C949000D0931D0297
:10122000C0931C0203E00D9309E00D930FE10D93B1
:101230008D939D93ED012597D06C0C944C09FA0188
:10124000D581C681CF93DF93D381C481CF93DF93C0
:10125000D181C281D4110C943109DCE0C0E00C943E
:101260003309DCE0C1E0CF93DF93D0911302C0914A
:1012700012022DB73EB73696EDBFFEBF3697AF01CF
:10128000F9013696E217F30721F0008131970F93A9
:10129000F9CF73E00C949000D0931F02C0931E020C
:1012A00003E00D9309E00D930DE50D938D939D9350
:1012B000ED012597D06C0C948A09FA01D581C6817D
:1012C000CF93DF93D381C481CF93DF93D181C28148
:1012D000D4110C946F09DFE0C0E00C947109DFE0D9
:1012E000C1E0CF93DF93D0911302C09112022DB7CA
:1012F0003EB73696EDBFFEBF3697AF01F901369681
:10130000E217F30721F0008131970F93F9CF73E0D3
:101310000C949000D0932102C0932002FF93EF938E
:101320009F938F9309E00F9300EB0F93D0E0C2E0FF
:10133000CF93DF93D0E0C4E0CF93DF93D0E0C3E05E
:10134000CF93DF93D0E0C1E0CF93DF93D09115022C
:10135000C0911402EDB7FEB7AF0174E00C94900099
:101360008F919F91EF91FF91D0932302C09322021E
:10137000FF93EF939F938F9309E00F9308ED0F93E3
:10138000D0912302C0912202CF93DF93D0E0C0E03E
:10139000CF93DF93D0E0C0E0CF93DF93D0911902D9
:1013A000C0911802EDB7FEB7AF0173E00C94900046
:1013B0008F919F91EF91FF91FF93EF939F938F9365
:1013C00009E00F930CEF0F93D0912302C0912202FA
:1013D000CF93DF93D0E0C0E0CF93DF93D0E0CFE0B6
:1013E000CF93DF93D0911B02C0911A02EDB7FEB7E5
:1013F000AF0173E00C9490008F919F91EF91FF915A
:10140000FF93EF939F938F930AE00F9300E20F9364
:10141000D0912302C0912202CF93DF93D0E0C0E0AD
:10142000CF93DF93D0E0C7E0CF93DF93D0911D023D
:10143000C0911C02EDB7FEB7AF0173E00C949000B1
:101440008F919F91EF91FF91FF93EF939F938F93D4
:101450000AE00F9304E40F93D0912302C09122027B
:10146000CF93DF93D0E0C0E0CF93DF93DEEFC0E017
:10147000CF93DF93D0912102C0912002EDB7FEB748
:10148000AF0173E00C9490008F919F91EF91FF91C9
:10149000FF93EF939F938F930AE00F9308E60F93C8
:1014A000D0912302C0912202CF93DF93D0E0C0E01D
:1014B000CF93DF93DFEFC0E0CF93DF93D0911F0294
:1014C000C0911E02EDB7FEB7AF0173E00C9490001F
:1014D0008F919F91EF91FF91FF93EF939F938F9344
:1014E0000AE00F9300E90F93D0912302C0912202EA
:1014F000CF93DF93D0E0C0E0CF93DF93D0E0C1E0A3
:10150000CF93DF93D0E0C1E0CF93DF93D091170268
:10151000C0911602EDB7FEB7AF0174E00C949000D5
:101520008F919F91EF91FF91FF93EF939F938F93F3
:101530000AE00F9308EB0F93D0912302C09122028F
:10154000CF93DF93D0E0C0E0CF93DF93D0E0C2E051
:10155000CF93DF93D0E0C1E0CF93DF93D091170218
:10156000C0911602EDB7FEB7AF0174E00C94900085
:101570008F919F91EF91FF91FF93EF939F938F93A3
:101580000AE00F9300EE0F93D0912302C091220244
:10159000CF93DF93D0E0C0E0CF93DF93D0E0C3E000
:1015A000CF93DF93D0E0C1E0CF93DF93D0911702C8
:1015B000C0911602EDB7FEB7AF0174E00C94900035
:1015C0008F919F91EF91FF91FF93EF939F938F9353
:1015D0000BE00F9308E00F93D0912302C0912202F9
:1015E000CF93DF93D0E0C0E0CF93DF93D0E0C4E0AF
:1015F000CF93DF93D0E0C1E0CF93DF93D091170278
:10160000C0911602EDB7FEB7AF0174E00C949000E4
:101610008F919F91EF91FF91FF93EF939F938F9302
:101620000BE00F9300E30F93D0912302C0912202AD
:10163000CF93DF93D0E0C0E0CF93DF93D0E0C5E05D
:10164000CF93DF93D0E0C1E0CF93DF93D091170227
:10165000C0911602EDB7FEB7AF0174E00C94900094
:101660008F919F91EF91FF91FF93EF939F938F93B2
:101670000BE00F9308E50F93D0912302C091220253
:10168000CF93DF93D0E0C0E0CF93DF93D0E0C6E00C
:10169000CF93DF93D0E0C1E0CF93DF93D0911702D7
:1016A000C0911602EDB7FEB7AF0174E00C94900044
:1016B0008F919F91EF91FF91FF93EF939F938F9362
:1016C0000BE00F9300E80F93D0912302C091220208
:1016D000CF93DF93D0E0C0E0CF93DF93D0E0C7E0BB
:1016E000CF93DF93D0E0C1E0CF93DF93D091170287
:1016F000C0911602EDB7FEB7AF0174E00C949000F4
:101700008F919F91EF91FF91FF93EF939F938F9311
:101710000BE00F9308EA0F93D0912302C0912202AD
:10172000CF93DF93D0E0C0E0CF93DF93D0E0C8E069
:10173000CF93DF93D0E0C1E0CF93DF93D091170236
:10174000C0911602EDB7FEB7AF0174E00C949000A3
:101750008F919F91EF91FF9100E00D930BE00D931E
:1017600009EB0D938D939D93ED012597D06C0C940F
:101770001E0CFA01FF93EF939F938F930BE00F934F
:101780000AED0F93D0912302C0912202CF93DF93F1
:10179000D0E0C0E0CF93DF93DFEFC0E0CF93DF93E3
:1017A000D0912102C0912002EDB7FEB7AF0173E0E6
:1017B0000C9490008F919F91EF91FF91D1E0C4EF35
:1017C0000E946901FF93EF939F938F930CE00F9317
:1017D00002E00F93D0912302C0912202CF93DF93B6
:1017E000D0E0C0E0CF93DF93DEEFC0E0CF93DF9394
:1017F000D0912102C0912002EDB7FEB7AF0173E096
:101800000C9490008F919F91EF91FF91D1E0C4EFE4
:101810000E946901D0912502C09124022DB73EB7E4
:10182000EDBFFEBFAF01F901E217F30721F0008120
:1018300031970F93F9CF70E00C949000D09325026C
:10184000C0932402FF93EF939F938F930CE00F9329
:1018500004E30F93D0912502C0912402EDB7FEB7A7
:10186000AF0170E00C9490008F919F91EF91FF91E8
:0A1870002F9A0C943B0CF894FFCF64
:10187A00FE00FE00FE00FE00FE00FE00FE00FE006E
:10188A00FE00FE00FE00FE00FE00FE00FE00FE005E
:06189A00FE00FE00FE004E
:00000001FF
